{
  "_format": "hh-sol-artifact-1",
  "contractName": "ExcelciumSwap",
  "sourceName": "contracts/ExcelciumSwap.sol",
  "abi": [
    {
      "inputs": [
        {
          "internalType": "uint256",
          "name": "_fee",
          "type": "uint256"
        },
        {
          "internalType": "uint256",
          "name": "_ratio",
          "type": "uint256"
        }
      ],
      "stateMutability": "nonpayable",
      "type": "constructor"
    },
    {
      "inputs": [
        {
          "internalType": "address",
          "name": "owner",
          "type": "address"
        }
      ],
      "name": "OwnableInvalidOwner",
      "type": "error"
    },
    {
      "inputs": [
        {
          "internalType": "address",
          "name": "account",
          "type": "address"
        }
      ],
      "name": "OwnableUnauthorizedAccount",
      "type": "error"
    },
    {
      "anonymous": false,
      "inputs": [
        {
          "indexed": true,
          "internalType": "address",
          "name": "previousOwner",
          "type": "address"
        },
        {
          "indexed": true,
          "internalType": "address",
          "name": "newOwner",
          "type": "address"
        }
      ],
      "name": "OwnershipTransferred",
      "type": "event"
    },
    {
      "inputs": [],
      "name": "fee",
      "outputs": [
        {
          "internalType": "uint256",
          "name": "",
          "type": "uint256"
        }
      ],
      "stateMutability": "view",
      "type": "function"
    },
    {
      "inputs": [],
      "name": "owner",
      "outputs": [
        {
          "internalType": "address",
          "name": "",
          "type": "address"
        }
      ],
      "stateMutability": "view",
      "type": "function"
    },
    {
      "inputs": [],
      "name": "ratio",
      "outputs": [
        {
          "internalType": "uint256",
          "name": "",
          "type": "uint256"
        }
      ],
      "stateMutability": "view",
      "type": "function"
    },
    {
      "inputs": [
        {
          "internalType": "uint256",
          "name": "amount",
          "type": "uint256"
        }
      ],
      "name": "receiveEXC",
      "outputs": [],
      "stateMutability": "nonpayable",
      "type": "function"
    },
    {
      "inputs": [],
      "name": "renounceOwnership",
      "outputs": [],
      "stateMutability": "nonpayable",
      "type": "function"
    },
    {
      "inputs": [
        {
          "internalType": "uint256",
          "name": "amount",
          "type": "uint256"
        }
      ],
      "name": "swapETHtoEXC",
      "outputs": [],
      "stateMutability": "payable",
      "type": "function"
    },
    {
      "inputs": [
        {
          "internalType": "uint256",
          "name": "amount",
          "type": "uint256"
        }
      ],
      "name": "swapEXCtoETH",
      "outputs": [],
      "stateMutability": "payable",
      "type": "function"
    },
    {
      "inputs": [
        {
          "internalType": "address",
          "name": "newOwner",
          "type": "address"
        }
      ],
      "name": "transferOwnership",
      "outputs": [],
      "stateMutability": "nonpayable",
      "type": "function"
    }
  ],
  "bytecode": "0x6080604052739e6969254d73eda498375b079d8be540fb42fea7600360006101000a81548173ffffffffffffffffffffffffffffffffffffffff021916908373ffffffffffffffffffffffffffffffffffffffff160217905550600360009054906101000a900473ffffffffffffffffffffffffffffffffffffffff16600460006101000a81548173ffffffffffffffffffffffffffffffffffffffff021916908373ffffffffffffffffffffffffffffffffffffffff160217905550348015620000c957600080fd5b5060405162000e8f38038062000e8f8339818101604052810190620000ef919062000291565b33600073ffffffffffffffffffffffffffffffffffffffff168173ffffffffffffffffffffffffffffffffffffffff1603620001655760006040517f1e4fbdf70000000000000000000000000000000000000000000000000000000081526004016200015c91906200031d565b60405180910390fd5b62000176816200018d60201b60201c565b50816001819055508060028190555050506200033a565b60008060009054906101000a900473ffffffffffffffffffffffffffffffffffffffff169050816000806101000a81548173ffffffffffffffffffffffffffffffffffffffff021916908373ffffffffffffffffffffffffffffffffffffffff1602179055508173ffffffffffffffffffffffffffffffffffffffff168173ffffffffffffffffffffffffffffffffffffffff167f8be0079c531659141344cd1fd0a4f28419497f9722a3daafe3b4186f6b6457e060405160405180910390a35050565b600080fd5b6000819050919050565b6200026b8162000256565b81146200027757600080fd5b50565b6000815190506200028b8162000260565b92915050565b60008060408385031215620002ab57620002aa62000251565b5b6000620002bb858286016200027a565b9250506020620002ce858286016200027a565b9150509250929050565b600073ffffffffffffffffffffffffffffffffffffffff82169050919050565b60006200030582620002d8565b9050919050565b6200031781620002f8565b82525050565b60006020820190506200033460008301846200030c565b92915050565b610b45806200034a6000396000f3fe60806040526004361061007b5760003560e01c8063ddca3f431161004e578063ddca3f4314610109578063e94ce81414610134578063ed0b6b5714610150578063f2fde38b146101795761007b565b8063715018a61461008057806371ca337d146100975780637b178e16146100c25780638da5cb5b146100de575b600080fd5b34801561008c57600080fd5b506100956101a2565b005b3480156100a357600080fd5b506100ac6101b6565b6040516100b99190610708565b60405180910390f35b6100dc60048036038101906100d79190610754565b6101bc565b005b3480156100ea57600080fd5b506100f3610300565b60405161010091906107c2565b60405180910390f35b34801561011557600080fd5b5061011e610329565b60405161012b9190610708565b60405180910390f35b61014e60048036038101906101499190610754565b61032f565b005b34801561015c57600080fd5b5061017760048036038101906101729190610754565b610468565b005b34801561018557600080fd5b506101a0600480360381019061019b9190610809565b610516565b005b6101aa61059c565b6101b46000610623565b565b60025481565b803410156101ff576040517f08c379a00000000000000000000000000000000000000000000000000000000081526004016101f6906108b9565b60405180910390fd5b60008160025460646102119190610937565b61021b9190610968565b9050600460009054906101000a900473ffffffffffffffffffffffffffffffffffffffff1673ffffffffffffffffffffffffffffffffffffffff1663a9059cbb33836040518363ffffffff1660e01b815260040161027a9291906109aa565b6020604051808303816000875af1158015610299573d6000803e3d6000fd5b505050506040513d601f19601f820116820180604052508101906102bd9190610a0b565b6102fc576040517f08c379a00000000000000000000000000000000000000000000000000000000081526004016102f390610a84565b60405180910390fd5b5050565b60008060009054906101000a900473ffffffffffffffffffffffffffffffffffffffff16905090565b60015481565b600460009054906101000a900473ffffffffffffffffffffffffffffffffffffffff1673ffffffffffffffffffffffffffffffffffffffff166323b872dd3330846040518463ffffffff1660e01b815260040161038e93929190610aa4565b6020604051808303816000875af11580156103ad573d6000803e3d6000fd5b505050506040513d601f19601f820116820180604052508101906103d19190610a0b565b6103da57600080fd5b600060646001546103eb9190610937565b60016103f79190610adb565b8260646002546104079190610937565b6104119190610968565b61041b9190610968565b90503073ffffffffffffffffffffffffffffffffffffffff166108fc829081150290604051600060405180830381858888f19350505050158015610463573d6000803e3d6000fd5b505050565b600460009054906101000a900473ffffffffffffffffffffffffffffffffffffffff1673ffffffffffffffffffffffffffffffffffffffff166323b872dd3330846040518463ffffffff1660e01b81526004016104c793929190610aa4565b6020604051808303816000875af11580156104e6573d6000803e3d6000fd5b505050506040513d601f19601f8201168201806040525081019061050a9190610a0b565b61051357600080fd5b50565b61051e61059c565b600073ffffffffffffffffffffffffffffffffffffffff168173ffffffffffffffffffffffffffffffffffffffff16036105905760006040517f1e4fbdf700000000000000000000000000000000000000000000000000000000815260040161058791906107c2565b60405180910390fd5b61059981610623565b50565b6105a46106e7565b73ffffffffffffffffffffffffffffffffffffffff166105c2610300565b73ffffffffffffffffffffffffffffffffffffffff1614610621576105e56106e7565b6040517f118cdaa700000000000000000000000000000000000000000000000000000000815260040161061891906107c2565b60405180910390fd5b565b60008060009054906101000a900473ffffffffffffffffffffffffffffffffffffffff169050816000806101000a81548173ffffffffffffffffffffffffffffffffffffffff021916908373ffffffffffffffffffffffffffffffffffffffff1602179055508173ffffffffffffffffffffffffffffffffffffffff168173ffffffffffffffffffffffffffffffffffffffff167f8be0079c531659141344cd1fd0a4f28419497f9722a3daafe3b4186f6b6457e060405160405180910390a35050565b600033905090565b6000819050919050565b610702816106ef565b82525050565b600060208201905061071d60008301846106f9565b92915050565b600080fd5b610731816106ef565b811461073c57600080fd5b50565b60008135905061074e81610728565b92915050565b60006020828403121561076a57610769610723565b5b60006107788482850161073f565b91505092915050565b600073ffffffffffffffffffffffffffffffffffffffff82169050919050565b60006107ac82610781565b9050919050565b6107bc816107a1565b82525050565b60006020820190506107d760008301846107b3565b92915050565b6107e6816107a1565b81146107f157600080fd5b50565b600081359050610803816107dd565b92915050565b60006020828403121561081f5761081e610723565b5b600061082d848285016107f4565b91505092915050565b600082825260208201905092915050565b7f50726f6d6973656420616d6f756e7420616e6420696e766f6b6564206172652060008201527f646966666572656e742000000000000000000000000000000000000000000000602082015250565b60006108a3602a83610836565b91506108ae82610847565b604082019050919050565b600060208201905081810360008301526108d281610896565b9050919050565b7f4e487b7100000000000000000000000000000000000000000000000000000000600052601260045260246000fd5b7f4e487b7100000000000000000000000000000000000000000000000000000000600052601160045260246000fd5b6000610942826106ef565b915061094d836106ef565b92508261095d5761095c6108d9565b5b828204905092915050565b6000610973826106ef565b915061097e836106ef565b925082820261098c816106ef565b915082820484148315176109a3576109a2610908565b5b5092915050565b60006040820190506109bf60008301856107b3565b6109cc60208301846106f9565b9392505050565b60008115159050919050565b6109e8816109d3565b81146109f357600080fd5b50565b600081519050610a05816109df565b92915050565b600060208284031215610a2157610a20610723565b5b6000610a2f848285016109f6565b91505092915050565b7f5472616e73666572206973206e6f742065786563757465640000000000000000600082015250565b6000610a6e601883610836565b9150610a7982610a38565b602082019050919050565b60006020820190508181036000830152610a9d81610a61565b9050919050565b6000606082019050610ab960008301866107b3565b610ac660208301856107b3565b610ad360408301846106f9565b949350505050565b6000610ae6826106ef565b9150610af1836106ef565b9250828203905081811115610b0957610b08610908565b5b9291505056fea26469706673582212200af3fd081fb48cbe7371d56da61a26bd15aa21f18d682225e83a54edcdb62a4464736f6c63430008140033",
  "linkReferences": {},
  "deployedLinkReferences": {}
}